:100000000C945D000C9485000C9485000C94850084
:100010000C9485000C9485000C9485000C9485004C
:100020000C9485000C9485000C9485000C942E0390
:100030000C9485000C9485000C9485000C9485002C
:100040000C94E4020C9485000C94B2020C948C0283
:100050000C9485000C9485000C9485000C9485000C
:100060000C9485000C94850000000008000201003B
:100070000003040700000000000000000000000072
:10008000250028002B0000000000240027002A0083
:10009000040404040404040402020202020203032E
:1000A0000303030301020408102040800102040836
:1000B0001020010204081020EA0311241FBECFEF14
:1000C000D8E0DEBFCDBF11E0A0E0B1E0EAE0FCE0A7
:1000D00002C005900D92A632B107D9F721E0A6E241
:1000E000B1E001C01D92AA3FB207E1F710E0CDE5F3
:1000F000D0E004C02197FE010E94FD05CC35D10758
:10010000C9F70E9461040C9403060C940000CF937D
:10011000DF93DC018C918C3008F06FC0CB01FB01C8
:10012000EC55FF4F249180579F4FFC018491882309
:1001300099F090E0880F991FFC01EA57FF4FC59195
:10014000D491FC01E458FF4F859194918FB7F894B6
:10015000E881E22BE8838FBF8C91282F30E0F901F2
:10016000EE0FFF1FE20FF31FE153FE4F962F9F7319
:100170006081607C692B60839EE811969C93119747
:1001800094E612969C9312972CE0622F0E94EA0547
:10019000829FB001112430E020E0AB01420F531FD9
:1001A000FA01EE0FFF1FE40FF51FE153FE4F9081A0
:1001B00096FD16C02F5F3F4F2C30310571F781112E
:1001C0000FC01092800082E0809381001092850021
:1001D00010928400B19A80916F00826080936F00CA
:1001E000EC918E2F90E0FC01EE0FFF1FE80FF91F3E
:1001F000E153FE4F8081806480838C91DF91CF91A9
:100200000895AF92BF92CF92DF92EF92FF920F9339
:100210001F93CF93DF936C017B018B01040F151F9C
:10022000EB015E01AE18BF08C017D10759F0699104
:10023000D601ED91FC910190F081E02DC601099568
:10024000892B79F7C501DF91CF911F910F91FF9015
:10025000EF90DF90CF90BF90AF900895FC01538D49
:10026000448D252F30E0842F90E0821B930B541790
:1002700010F0CF96089501970895FC01918D828D1D
:10028000981761F0A28DAE0FBF2FB11D5D968C91B6
:10029000928D9F5F9F73928F90E008958FEF9FEFF5
:1002A0000895FC01918D828D981731F0828DE80FB1
:1002B000F11D858D90E008958FEF9FEF0895FC016B
:1002C000918D228D892F90E0805C9F4F821B910938
:1002D0008F739927089582E391E00E945F0121E0E6
:1002E000892B09F420E0822F089580E090E0892B8B
:1002F00029F00E946B0181110C9400000895FC010B
:10030000A48DA80FB92FB11DA35ABF4F2C91848D76
:1003100090E001968F739927848FA689B7892C93D3
:10032000A089B1898C91837080648C93938D848D26
:10033000981306C00288F389E02D80818F7D808329
:100340000895EF92FF920F931F93CF93DF93EC01E9
:1003500081E0888F9B8D8C8D98131AC0E889F9896C
:10036000808185FF15C09FB7F894EE89FF8960836F
:10037000E889F98980818370806480839FBF81E0F0
:1003800090E0DF91CF911F910F91FF90EF90089532
:10039000F62E0B8D10E00F5F1F4F0F731127E02E0D
:1003A0008C8D8E110CC00FB607FCFACFE889F98945
:1003B000808185FFF5CFCE010E947F01F1CFEB8DCB
:1003C000EC0FFD2FF11DE35AFF4FF0829FB7F89419
:1003D0000B8FEA89FB8980818062CFCFCF93DF9337
:1003E000EC01888D8823B9F0AA89BB89E889F9894D
:1003F0008C9185FD03C0808186FD0DC00FB607FC82
:10040000F7CF8C9185FFF2CF808185FFEDCFCE01B4
:100410000E947F01E9CFDF91CF91089590E0FC0128
:10042000E859FF4F2491FC01EC55FF4F3491FC013A
:10043000E057FF4FE491EE23C9F0222339F0233037
:1004400001F1A8F4213019F1223029F1F0E0EE0F8A
:10045000FF1FE458FF4FA591B4918FB7F894EC912A
:10046000611126C030953E233C938FBF08952730FD
:10047000A9F02830C9F0243049F7809180008F7DA1
:1004800003C0809180008F7780938000DFCF84B598
:100490008F7784BDDBCF84B58F7DFBCF8091B0009B
:1004A0008F778093B000D2CF8091B0008F7DF9CF4D
:1004B0003E2BDACF3FB7F89480912C0190912D011B
:1004C000A0912E01B0912F0126B5A89B05C02F3F0A
:1004D00019F00196A11DB11D3FBFBA2FA92F982F6A
:1004E0008827BC01CD01620F711D811D911D42E065
:1004F000660F771F881F991F4A95D1F70895FC0151
:1005000001900020E9F73197AF01481B590BBC015E
:1005100082E391E00C9401011F920F920FB60F92AB
:1005200011242F933F934F935F936F937F938F93F8
:100530009F93AF93BF93EF93FF9382E391E00E9469
:100540007F01FF91EF91BF91AF919F918F917F912B
:100550006F915F914F913F912F910F900FBE0F9030
:100560001F9018951F920F920FB60F9211242F9380
:100570008F939F93EF93FF93E0914201F09143019A
:100580008081E0914801F091490182FD1BC090817A
:1005900080914B018F5F8F7320914C01821741F046
:1005A000E0914B01F0E0EE5CFE4F958F80934B01A4
:1005B000FF91EF919F918F912F910F900FBE0F9010
:1005C0001F9018958081F4CF1F920F920FB60F9253
:1005D00011242F933F938F939F93AF93BF93809159
:1005E000280190912901A0912A01B0912B0130910D
:1005F000270123E0230F2D3758F50196A11DB11DCA
:10060000209327018093280190932901A0932A0128
:10061000B0932B0180912C0190912D01A0912E017E
:10062000B0912F010196A11DB11D80932C019093D3
:100630002D01A0932E01B0932F01BF91AF919F91F7
:100640008F913F912F910F900FBE0F901F90189593
:1006500026E8230F0296A11DB11DD2CF1F920F9243
:100660000FB60F9211242F933F934F935F936F9385
:100670007F938F939F93AF93BF93CF93DF93EF932A
:10068000FF9380912601C091F301D0E087FF24C041
:100690001092850010928400809126018F5F8093D4
:1006A000260180912601082E000C990B8C179D07BE
:1006B00024F4809126018C30C4F1809184009091C3
:1006C0008500049680349C4908F47AC080918400A7
:1006D00090918500049676C080912601082E000C2A
:1006E000990B8C179D07C4F6E09126018E2FEE0F13
:1006F000990BFC01EE0FFF1FE80FF91FE153FE4FAE
:10070000808186FFC9CFE09126018E2FEE0F990BD5
:10071000FC01EE0FFF1FE80FF91FE153FE4F808130
:1007200060E08F730E940E02B7CF20918400309159
:100730008500E09126018E2FEE0F990BFC01EE0F44
:10074000FF1FE80FF91FE153FE4F81819281820F55
:10075000931F9093890080938800E09126018E2F4B
:10076000EE0F990BFC01EE0FFF1FE80FF91FE1538D
:10077000FE4F808186FF11C0E09126018E2FEE0F83
:10078000990BFC01EE0FFF1FE80FF91FE153FE4F1D
:10079000808161E08F730E940E02FF91EF91DF91E3
:1007A000CF91BF91AF919F918F917F916F915F9109
:1007B0004F913F912F910F900FBE0F901F90189562
:1007C00080E49CE990938900809388008FEF809368
:1007D0002601E3CF109235011092340188EE93E0A8
:1007E000A0E0B0E08093360190933701A0933801E8
:1007F000B093390184E091E090933301809332010A
:1008000085EC90E090933F0180933E0184EC90E072
:10081000909341018093400180EC90E090934301DC
:100820008093420181EC90E09093450180934401D4
:1008300082EC90E0909347018093460186EC90E033
:10084000909349018093480110924B0110924C0102
:1008500010924D0110924E018091F3018C3048F5B9
:1008600091E0980F9093F3018093F70190E0FC01E1
:10087000EE0FFF1FE80FF91FE153FE4F88EB9BE0DF
:10088000928381838091F3018C30B8F491E0980FCA
:100890009093F3018093F40190E0FC01EE0FFF1FB1
:1008A000E80FF91FE153FE4F88EB9BE092838183B1
:1008B00008958FEF8093F701E5CF8FEF8093F401D8
:1008C0000895CF93DF93CDB7DEB7A1970FB6F89415
:1008D000DEBF0FBECDBF789484B5826084BD84B581
:1008E000816084BD85B5826085BD85B5816085BD2B
:1008F00080916E00816080936E00109281008091E3
:10090000810082608093810080918100816080936A
:100910008100809180008160809380008091B1008F
:1009200084608093B1008091B00081608093B000BA
:1009300080917A00846080937A0080917A0082604E
:1009400080937A0080917A00816080937A00809110
:100950007A00806880937A001092C10069E070E0AC
:1009600087EF91E00E9487006AE070E084EF91E0F9
:100970000E948700E0914201F091430182E0808370
:10098000E0913E01F0913F011082E0914001F09131
:1009900041018FEC808310924A01E0914601F09171
:1009A000470186E08083E0914401F0914501808118
:1009B00080618083E0914401F091450180818860ED
:1009C0008083E0914401F0914501808180688083BB
:1009D000E0914401F091450180818F7D80839AE010
:1009E000892E912CA12CB12C20E0222E20E0322E39
:1009F00020E420937C0080917A00806480937A00C8
:100A000080917A0086FDFCCF80917800A0917900DA
:100A1000BA2FA82F24E931E10E94F6052FEF33E029
:100A200040E050E00E949A052C503E4F4F4F5F4FE0
:100A3000309331012093300182E191E00E947F02E6
:100A4000C0903001D09031010D2C000CEE08FF0851
:100A5000F7FE5AC06DE282E391E00E94A1012227D5
:100A60003327A9012C193D094E095F0919A28E01EE
:100A70000F5D1F4FCA01B901A50194010E94B9057C
:100A8000605DF80162938F01211531054105510523
:100A900089F70115110519F0C8010E947F0282E251
:100AA00091E00E947F020E945A022B013C0188EBD8
:100AB000C82E8BE0D82EE12CF12C0E945A0264192A
:100AC000750986099709683E734081059105A8F369
:100AD000F1E0CF1AD108E108F10828EE420E23E038
:100AE000521E611C711CC114D104E104F10429F7E8
:100AF0002114310409F47CCF0E946B01882309F48E
:100B000077CF0E94000074CFA701960119A28E0131
:100B10000F5D1F4FCA01B901A50194010E94B905DB
:100B2000605DF80162938F01211531054105510582
:100B300089F7AFCF052E97FB1EF400940E94B105F4
:100B400057FD07D00E94B90507FC03D04EF40C9462
:100B5000B10550954095309521953F4F4F4F5F4FD0
:100B6000089590958095709561957F4F8F4F9F4F19
:100B70000895A1E21A2EAA1BBB1BFD010DC0AA1FDE
:100B8000BB1FEE1FFF1FA217B307E407F50720F0F6
:100B9000A21BB30BE40BF50B661F771F881F991F71
:100BA0001A9469F760957095809590959B01AC01BA
:100BB000BD01CF010895A29FB001B39FC001A39FC3
:100BC000700D811D1124911DB29F700D811D112486
:100BD000911D0895991B79E004C0991F961708F09C
:100BE000961B881F7A95C9F7809508950E94DB05AA
:100BF000B7FF0895821B930B0895EE0FFF1F05901A
:0A0C0000F491E02D0994F894FFCF61
:100C0A0000000000A10101012E01EE015F013D017A
:100C1A005101537465707065722053504545443ACA
:060C2A0020000D0A00008D
:00000001FF
